:100000008E2AFF3FFF3FFF3F031383127408F8025D
:100010007508031C750FF9027608031C760FFA02A7
:100020007708031C770FFB02F30D0730FC00730DFC
:10003000F80DF90DFA0DFB0D7408731C2D28F8024C
:100040007508031C750FF9027608031C760FFA0277
:100050007708031C770FFB023A28F8077508031886
:10006000750FF90776080318760FFA077708031853
:10007000770FFB07F30DFC0B1728720DF80DF90D28
:10008000FA0DFB0D7408731C5328F8027508031C45
:10009000750FF9027608031C760FFA027708031C25
:1000A000770FFB026028F80775080318750FF9072A
:1000B00076080318760FFA0777080318770FFB07FF
:1000C000F20D0730FC00720DF80DF90DFA0DFB0D65
:1000D0007408721C7928F8027508031C750FF90260
:1000E0007608031C760FFA027708031C770FFB02D1
:1000F0008628F80775080318750FF907760803189E
:10010000760FFA0777080318770FFB07F20DFC0B41
:100110006328710DF80DF90DFA0DFB0D7408721CB2
:100120009F28F8027508031C750FF9027608031C56
:10013000760FFA027708031C770FFB02AC28F8074A
:1001400075080318750FF90776080318760FFA0774
:1001500077080318770FFB07F10D0730FC00710DCE
:10016000F80DF90DFA0DFB0D7408711CC528F80285
:100170007508031C750FF9027608031C760FFA0246
:100180007708031C770FFB02D228F80775080318BD
:10019000750FF90776080318760FFA077708031822
:1001A000770FFB07F10DFC0BAF28700DF80DF90D63
:1001B000FA0DFB0D7408711CEB28F8027508031C7E
:1001C000750FF9027608031C760FFA027708031CF4
:1001D000770FFB02F828F80775080318750FF90761
:1001E00076080318760FFA0777080318770FFB07CE
:1001F000F00D0730FC00700DF80DF90DFA0DFB0D38
:100200007408701C1129F8027508031C750FF90297
:100210007608031C760FFA027708031C770FFB029F
:100220001E29F80775080318750FF90776080318D3
:10023000760FFA0777080318770FFB07F00DFC0B12
:10024000FB28701831297408F80775080318750F12
:10025000F90776080318760FFA0777080318770F5F
:10026000FB07080003138312BB01BC011030BF0061
:100270002730C000BD01BE01C301C401C501C601D4
:10028000C101C2013D083A0784000008F400740867
:10029000003A0319AE293D083A0784000008F4002B
:1002A00074082D3A031D5B29FF30C100C201BD0A4D
:1002B0000319BE0A42293D083A0784000008F400E9
:1002C0007408203A03199E293D083A078400000863
:1002D000F0003030F800F901FA01FB017008F40079
:1002E000F501F601F7017408F0007508F1007608D1
:1002F000F2007708F3007808F0027908031C790F00
:10030000F1027A08031C7A0FF2027B08031C7B0FB0
:10031000F3023F08F4004008F500F601F70112244B
:100320007008C30771080318710FC4077208031817
:10033000720FC50773080318730FC6070A30F4005D
:10034000F5013F08F0004008F100B5247008BF0037
:100350007108C000BD0A0319BE0A422941084204BF
:100360000319B6290630BF00C001B9290530BF0006
:10037000C0013E084006031DBF293F083D06031982
:10038000DB290A30F400F501F601F7014308F0001B
:100390004408F1004508F2004608F300F421700813
:1003A000C3007108C4007208C5007308C600BD0A06
:1003B0000319BE0AB9294308BB004408BC00003039
:1003C0004206031DE529FF304106031DEF293B08C6
:1003D000003CBB003C08031C013FBC01BC023B08C5
:1003E000F0003C08F100080003138312FC01F71B26
:1003F000FC0AFD01FB01FA01F901F801730872041E
:10040000710470040319882A73087706A000A01BE2
:10041000FD09F71F162AF409F509F609F709F40A88
:100420000319F50A0319F60A0319F70AF31F232A19
:10043000F009F109F209F309F00A0319F10A0319A5
:10044000F20A0319F30A73087704A000A01B442AD8
:100450000420FC1B612AFD1F882AF009F109F2091A
:10046000F309F00A0319F10A0319F20A0319F30A4E
:10047000F809F909FA09FB09F80A0319F90A031935
:10048000FA0A0319FB0A882AF71F5B2AF31B552A6D
:100490007308FB007208FA007108F9007008F80090
:1004A000F301F201F101F0012B2AF301F201F10154
:1004B000F001F00A0034F309F209F109F009FC1720
:1004C000282AF80A0319F90A0319FA0A0319FB0A78
:1004D00074087802031D2B2A75087902031D2B2A44
:1004E00076087A02031D2B2A77087B02031D2B2A2C
:1004F000FB01FA01F901F801F00A0319F10A0319E5
:10050000F20A0319F30AF31F2B2AA0012016FF3465
:10051000A0017C1C8C2AFA24003F0800FF30031342
:10052000831685007F30860087018B0103178312B5
:100530009E019F0103138701193083169900181536
:10054000D224B430A400A501A601A701A301082567
:100550007008003C0318FC2A2830BA002D30B8007F
:10056000B9013830BB0089232F30BA002F30B800D2
:10057000B9013830BB0089232830BA003221700815
:10058000B6007108B7002F30BA004E30B800B9017C
:100590003830BB00CC2300307106031DD12A003057
:1005A0007006031DD52AA301E72A2F30BA0049306F
:1005B000B800B9013830BB00CC2300307106031DF0
:1005C000E32A00307006031DE72AFF30A300360837
:1005D000BA003708BB004D240D30FB00FF30FA0095
:1005E000FB0BF32AF62AFA0BF32AF02AF330FA006F
:1005F000FA0BF82A00008701A8013030A300A72ACF
:10060000002BE83003138312C9000330CA00CB016A
:10061000CC014708F0004808F100F201F301E8308E
:10062000F4000330F5000030F6000030F7007E24BF
:100630007008C9007108CA007208CB007308CC00AA
:1006400000307302031D2E2B00307202031D2E2B6F
:1006500002307102031D2E2BA33070020318312BC0
:10066000882BA330F0000230F100F201F3014908B9
:10067000F4004A08F5004B08F6004C08F700700833
:10068000F4027108031C710FF5027208031C720F4B
:10069000F6027308031C730FF7027408C90075088B
:1006A000CA007608CB007708CC000530F00074084B
:1006B000C9007508CA007608CB007708CC0070081E
:1006C0000319692BCC0CCB0CCA0CC90CCC13FF3F03
:1006D000602BFF304905F8004A08F0007008F80464
:1006E0004B08F0004C08F1007008F8044C08F000CA
:1006F00070087804F4007408003A0319882B01305C
:10070000C902031CCA02031CCB02031CCC02692BC6
:10071000080003138312BC01BD01C0013B08840023
:100720000008BF0008257008003A0319C22BE7240F
:100730007008BE003C083A07F10071088400710897
:100740008400700880003E083F06031DAC2B3D0866
:100750003C02C000BD0AAE2BBD01C0013D083B07F5
:1007600084000008F1007108BF007108003A031D01
:10077000BA2BC32BBC0A3C08143C0318C22B133001
:10078000C000C32B922B40083A07F0007008840089
:10079000700884008001080003138312BE013A0828
:1007A00084000008BC00BD013B0884000008F00084
:1007B0000030BD007008BC02031CBD0300303D06C4
:1007C000031DE42B00303C06FF30031D0030F30016
:1007D0003E083A0784000008F2007208003AFF3031
:1007E00003190030F0007308F00503190D2C3E0AC0
:1007F000F0007008BE0070083A0784000008BC00D2
:10080000BD0170083B0784000008F0000030BD0007
:100810007008BC02031CBD03DE2B3C08F0003D0841
:10082000F100080003138312FD01F31F242CF009CB
:10083000F109F209F309F00A0319F10A0319F20A9E
:100840000319F30A8130FD07F71F322CF409F5096B
:10085000F609F709F40A0319F50A0319F60A031948
:10086000F70AFD0A7E247D1C4C2CF009F109F209DF
:10087000F309F809F909FA09FB09F00A0319F10A61
:100880000319F20A0319F30A0319F80A0319F90AFA
:100890000319FA0A0319FB0A080001300313831233
:1008A000A100A20180303B06F000803022067002D9
:1008B000031D5C2C21083A02031C7D2C2308FF3AFF
:1008C000031D6A2C033087002408C7002508C800D0
:1008D0000123712C013087002408C7002508C800B7
:1008E000012322083B06031D772C3A082106031931
:1008F0007D2CA10A0319A20A522C080003138312AB
:100900002230FC00F801F901FA01FB01FC03031994
:10091000B42C0310FB0CFA0CF90CF80CF30CF20CD1
:10092000F10CF00C031C862CFC030319A62C740894
:10093000F80775080318750FF90776080318760F7E
:10094000FA0777080318770FFB078A2C7408F80753
:1009500075080318750FF90776080318760FFA075C
:1009600077080318770FFB07080003138312F801B9
:10097000F9011030FC00710DF80DF90D7408F80242
:100980007508031C750FF9020318CD2C7408F807BD
:1009900075080318750FF9070310F00DF10DFC0B26
:1009A000BB2C08000313831698169030831298000E
:1009B00083168616861783120C08F1000030F11A90
:1009C0000130F1007108013A0319DB2C0800031310
:1009D00083121A08C7001808F1000030F11801301E
:1009E000F1007108013A031DF72C18121816470878
:1009F000F000080003138312FB09FA09F909F8094A
:100A0000F80A0319F90A0319FA0A0319FB0A08007C
:100A1000031383120C08F1000030F11A0130F100C9
:100A20007108C7004708F0000800FF3FFF3FFF3F85
:02400E00C430BC
:00000001FF
