:10000000F429FF3FFF3FFF3F031383127408F802F8
:100010007508031C750FF9027608031C760FFA02A7
:100020007708031C770FFB02F30D0730FC00730DFC
:10003000F80DF90DFA0DFB0D7408731C2D28F8024C
:100040007508031C750FF9027608031C760FFA0277
:100050007708031C770FFB023A28F8077508031886
:10006000750FF90776080318760FFA077708031853
:10007000770FFB07F30DFC0B1728720DF80DF90D28
:10008000FA0DFB0D7408731C5328F8027508031C45
:10009000750FF9027608031C760FFA027708031C25
:1000A000770FFB026028F80775080318750FF9072A
:1000B00076080318760FFA0777080318770FFB07FF
:1000C000F20D0730FC00720DF80DF90DFA0DFB0D65
:1000D0007408721C7928F8027508031C750FF90260
:1000E0007608031C760FFA027708031C770FFB02D1
:1000F0008628F80775080318750FF907760803189E
:10010000760FFA0777080318770FFB07F20DFC0B41
:100110006328710DF80DF90DFA0DFB0D7408721CB2
:100120009F28F8027508031C750FF9027608031C56
:10013000760FFA027708031C770FFB02AC28F8074A
:1001400075080318750FF90776080318760FFA0774
:1001500077080318770FFB07F10D0730FC00710DCE
:10016000F80DF90DFA0DFB0D7408711CC528F80285
:100170007508031C750FF9027608031C760FFA0246
:100180007708031C770FFB02D228F80775080318BD
:10019000750FF90776080318760FFA077708031822
:1001A000770FFB07F10DFC0BAF28700DF80DF90D63
:1001B000FA0DFB0D7408711CEB28F8027508031C7E
:1001C000750FF9027608031C760FFA027708031CF4
:1001D000770FFB02F828F80775080318750FF90761
:1001E00076080318760FFA0777080318770FFB07CE
:1001F000F00D0730FC00700DF80DF90DFA0DFB0D38
:100200007408701C1129F8027508031C750FF90297
:100210007608031C760FFA027708031C770FFB029F
:100220001E29F80775080318750FF90776080318D3
:10023000760FFA0777080318770FFB07F00DFC0B12
:10024000FB28701831297408F80775080318750F12
:10025000F90776080318760FFA0777080318770F5F
:10026000FB07080003138312C101C2011030C5004F
:100270002730C600C301C401C901CA01CB01CC01AA
:10028000C701C8014308400784000008F40074084F
:10029000003A0319AE294308400784000008F4001F
:1002A00074082D3A031D5B29FF30C700C801C30A3B
:1002B0000319C40A42294308400784000008F400D7
:1002C0007408203A03199E29430840078400000857
:1002D000F0003030F800F901FA01FB017008F40079
:1002E000F501F601F7017408F0007508F1007608D1
:1002F000F2007708F3007808F0027908031C790F00
:10030000F1027A08031C7A0FF2027B08031C7B0FB0
:10031000F3024508F4004608F500F601F701BB2496
:100320007008C90771080318710FCA07720803180B
:10033000720FCB0773080318730FCC070A30F40051
:10034000F5014508F0004608F1002D257008C500AC
:100350007108C600C30A0319C40A422947084804A1
:100360000319B6290630C500C601B9290530C500F4
:10037000C60144084606031DBF2945084306031964
:10038000DB290A30F400F501F601F7014908F00015
:100390004A08F1004B08F2004C08F3009322700861
:1003A000C9007108CA007208CB007308CC00C30AE8
:1003B0000319C40AB9294908C1004A08C20000301B
:1003C0004806031DE529FF304706031DEF294108B4
:1003D000003CC1004208031C013FC201C2024108A7
:1003E000F0004208F1000800FF3003138316850077
:1003F0007F30860087018B01031783129E019F01C6
:100400000313870119308316990018154A25B43053
:10041000A500A601A301A40180257008003C0318D3
:100420008D2A2730C0002D30BE00BF013E30C100F4
:1004300032242E30C0002F30BE00BF013E30C1003C
:1004400032243530C0005C30BE00BF013E30C100F8
:1004500032242730C00032217008BC007108BD0072
:100460002E30C0004E30BE00BF013E30C1007524AA
:1004700000307106031D3E2A00307006031D422A1B
:10048000A301542A2E30C0004930BE00BF013E30C7
:10049000C100752400307106031D502A003070061B
:1004A000031D542AFF30A3003530C0004830BE0081
:1004B000BF013E30C100752400307106031D622A61
:1004C00000307006031D672AFF30A400782A3530FB
:1004D000C0005730BE00BF013E30C100752400305F
:1004E0007106031D752A00307006031D782AA401C9
:1004F0003C08C0003D08C1002D230D30FB00FF303B
:10050000FA00FB0B842A872AFA0B842A812AF3300B
:10051000FA00FA0B892A00008701A7013030A300F6
:10052000B5010C2A922A03138312FC01F71BFC0A63
:10053000FD01FB01FA01F901F8017308720471046D
:1005400070040319272B73087706A000A01BFD0970
:10055000F71FB52AF409F509F609F709F40A031992
:10056000F50A0319F60A0319F70AF31FC22AF0095C
:10057000F109F209F309F00A0319F10A0319F20A61
:100580000319F30A73087704A000A01BE32A0420D0
:10059000FC1B002BFD1F272BF009F109F209F309C1
:1005A000F00A0319F10A0319F20A0319F30AF80908
:1005B000F909FA09FB09F80A0319F90A0319FA0AF1
:1005C0000319FB0A272BF71FFA2AF31BF42A7308D7
:1005D000FB007208FA007108F9007008F800F301D6
:1005E000F201F101F001CA2AF301F201F101F00177
:1005F000F00A0034F309F209F109F009FC17C72ADF
:10060000F80A0319F90A0319FA0A0319FB0A74080C
:100610007802031DCA2A75087902031DCA2A7608C2
:100620007A02031DCA2A77087B02031DCA2AFB012E
:10063000FA01F901F801F00A0319F10A0319F20AA3
:100640000319F30AF31FCA2AA0012016FF34A001E0
:100650007C1C2B2B7225003F0800013003138312F2
:10066000A100A20180304106F00080302206700215
:10067000031D3C2B21084002031CA92B2308FF3A31
:10068000FF30031D0030F1002408003AFF30031D45
:100690000030F0007108F0050319562B0330870075
:1006A0002508CD002608CE00AA239D2B2308FF3A5B
:1006B000FF30031D0030F1002408FF3AFF30031D16
:1006C0000030F0007108F00503196E2B0730870029
:1006D0002508CD002608CE00AA239D2B2308003A2A
:1006E000FF30031D0030F1002408FF3AFF30031DE6
:1006F0000030F0007108F0050319862B05308700E3
:100700002508CD002608CE00AA239D2B2308003AF9
:10071000FF30031D0030F1002408003AFF30031DB4
:100720000030F0007108F00503199D2B013087009F
:100730002508CD002608CE00AA2322084106031D65
:10074000A32B400821060319A92BA10A0319A20A09
:10075000322B0800E83003138312CF000330D0009F
:10076000D101D2014D08F0004E08F100F201F30171
:10077000E830F4000330F5000030F6000030F700F8
:10078000F6247008CF007108D0007208D1007308F9
:10079000D20000307302031DD72B00307202031DFC
:1007A000D72B02307102031DD72BA3307002031820
:1007B000DA2B312CA330F0000230F100F201F3010A
:1007C0004F08F4005008F5005108F6005208F700F1
:1007D0007008F4027108031C710FF5027208031C03
:1007E000720FF6027308031C730FF7027408CF0030
:1007F0007508D0007608D1007708D2000530F000E7
:100800007408CF007508D0007608D1007708D200B0
:1008100070080319122CD20CD10CD00CCF0CD213AF
:10082000FF3F092CFF304F05F8005008F00070081A
:10083000F8045108F0005208F1007008F80452085A
:10084000F00070087804F4007408003A0319312CA1
:100850000130CF02031CD002031CD102031CD202C0
:10086000122C080003138312C201C301C601410800
:1008700084000008C50080257008003A03196B2C1D
:100880005F257008C40042084007F1007108840029
:10089000710884007008800044084506031D552C2B
:1008A00043084202C600C30A572CC301C6014308CD
:1008B000410784000008F1007108C5007108003A82
:1008C000031D632C6C2CC20A4208143C03186B2CC9
:1008D0001330C6006C2C3B2C46084007F000700813
:1008E0008400700884008001080003138312C4018F
:1008F000400884000008C200C301410884000008C9
:10090000F0000030C3007008C202031CC3030030B3
:100910004306031D8D2C00304206FF30031D0030BE
:10092000F3004408400784000008F2007208003A0F
:10093000FF3003190030F0007308F0050319B62CDE
:10094000440AF0007008C4007008400784000008E2
:10095000C200C3017008410784000008F0000030A5
:10096000C3007008C202031CC303872C4208F000B6
:100970004308F100080003138312FD01F31FCD2C7F
:10098000F009F109F209F309F00A0319F10A031950
:10099000F20A0319F30A8130FD07F71FDB2CF40973
:1009A000F509F609F709F40A0319F50A0319F60A15
:1009B0000319F70AFD0AF6247D1CF52CF009F1094C
:1009C000F209F309F809F909FA09FB09F00A031910
:1009D000F10A0319F20A0319F30A0319F80A0319B1
:1009E000F90A0319FA0A0319FB0A08000313831210
:1009F0002230FC00F801F901FA01FB01FC030319A4
:100A00002C2D0310FB0CFA0CF90CF80CF30CF20C67
:100A1000F10CF00C031CFE2CFC0303191E2D7408B2
:100A2000F80775080318750FF90776080318760F8D
:100A3000FA0777080318770FFB07022D7408F807E9
:100A400075080318750FF90776080318760FFA076B
:100A500077080318770FFB07080003138312F801C8
:100A6000F9011030FC00710DF80DF90D7408F80251
:100A70007508031C750FF9020318452D7408F80753
:100A800075080318750FF9070310F00DF10DFC0B35
:100A9000332D0800031383169816903083129800A4
:100AA00083168616861783120C08F1000030F11A9F
:100AB0000130F1007108013A0319532D08000313A6
:100AC00083121A08CD001808F1000030F118013027
:100AD000F1007108013A031D6F2D181218164D0808
:100AE000F000080003138312FB09FA09F909F80959
:100AF000F80A0319F90A0319FA0A0319FB0A08008C
:100B0000031383120C08F1000030F11A0130F100D8
:100B10007108CD004D08F0000800FF3FFF3FFF3F88
:02400E00C430BC
:00000001FF
