:100000009D2AFF3FFF3FFF3F031383127408F8024E
:100010007508031C750FF9027608031C760FFA02A7
:100020007708031C770FFB02F30D0730FC00730DFC
:10003000F80DF90DFA0DFB0D7408731C2D28F8024C
:100040007508031C750FF9027608031C760FFA0277
:100050007708031C770FFB023A28F8077508031886
:10006000750FF90776080318760FFA077708031853
:10007000770FFB07F30DFC0B1728720DF80DF90D28
:10008000FA0DFB0D7408731C5328F8027508031C45
:10009000750FF9027608031C760FFA027708031C25
:1000A000770FFB026028F80775080318750FF9072A
:1000B00076080318760FFA0777080318770FFB07FF
:1000C000F20D0730FC00720DF80DF90DFA0DFB0D65
:1000D0007408721C7928F8027508031C750FF90260
:1000E0007608031C760FFA027708031C770FFB02D1
:1000F0008628F80775080318750FF907760803189E
:10010000760FFA0777080318770FFB07F20DFC0B41
:100110006328710DF80DF90DFA0DFB0D7408721CB2
:100120009F28F8027508031C750FF9027608031C56
:10013000760FFA027708031C770FFB02AC28F8074A
:1001400075080318750FF90776080318760FFA0774
:1001500077080318770FFB07F10D0730FC00710DCE
:10016000F80DF90DFA0DFB0D7408711CC528F80285
:100170007508031C750FF9027608031C760FFA0246
:100180007708031C770FFB02D228F80775080318BD
:10019000750FF90776080318760FFA077708031822
:1001A000770FFB07F10DFC0BAF28700DF80DF90D63
:1001B000FA0DFB0D7408711CEB28F8027508031C7E
:1001C000750FF9027608031C760FFA027708031CF4
:1001D000770FFB02F828F80775080318750FF90761
:1001E00076080318760FFA0777080318770FFB07CE
:1001F000F00D0730FC00700DF80DF90DFA0DFB0D38
:100200007408701C1129F8027508031C750FF90297
:100210007608031C760FFA027708031C770FFB029F
:100220001E29F80775080318750FF90776080318D3
:10023000760FFA0777080318770FFB07F00DFC0B12
:10024000FB28701831297408F80775080318750F12
:10025000F90776080318760FFA0777080318770F5F
:10026000FB070800013003138312A100A2018030B4
:100270002406F000803022067002031D4129210867
:100280002302031CD92900302606031D4929013009
:100290002506031D88292708FF3A031D6C29013014
:1002A00087002808CD002908CE00BC230230870033
:1002B0002808CD002908CE00BC2304308700280878
:1002C000CD002908CE00BC23083087002808CD00C7
:1002D0002908CE00BC238829083087002808CD00D3
:1002E0002908CE00BC23043087002808CD00290847
:1002F000CE00BC23023087002808CD002908CE009C
:10030000BC23013087002808CD002908CE00BC237B
:1003100000302606031D8E2902302506031DCD2937
:100320002A08FF3A031DB129103087002808CD00A4
:100330002908CE00BC23203087002808CD002908DA
:10034000CE00BC23403087002808CD002908CE000D
:10035000BC23803087002808CD002908CE00BC23AC
:10036000CD29803087002808CD002908CE00BC2385
:10037000403087002808CD002908CE00BC2320305B
:1003800087002808CD002908CE00BC231030870044
:100390002808CD002908CE00BC2322082406031D0E
:1003A000D329230821060319D929A10A0319A20A6E
:1003B00037298701080003138312C101C2011030DD
:1003C000C5002730C600C301C401C901CA01CB0161
:1003D000CC01C701C8014308400784000008F400AD
:1003E0007408003A0319572A43084007840000089C
:1003F000F40074082D3A031D042AFF30C700C80119
:10040000C30A0319C40AEB29430840078400000803
:10041000F4007408203A0319472A4308400784006F
:100420000008F0003030F800F901FA01FB01700813
:10043000F400F501F601F7017408F0007508F10009
:100440007608F2007708F3007808F0027908031CB8
:10045000790FF1027A08031C7A0FF2027B08031C61
:100460007B0FF3024508F4004608F500F601F7019A
:1004700070257008C90771080318710FCA07720840
:100480000318720FCB0773080318730FCC070A30D9
:10049000F400F5014508F0004608F1000F26700849
:1004A000C5007108C600C30A0319C40AEB2947082E
:1004B000480403195F2A0630C500C601622A0530C8
:1004C000C500C60144084606031D682A45084306C0
:1004D0000319842A0A30F400F501F601F7014908EE
:1004E000F0004A08F1004B08F2004C08F300222308
:1004F0007008C9007108CA007208CB007308CC00EC
:10050000C30A0319C40A622A4908C1004A08C20082
:1005100000304806031D8E2AFF304706031D982A27
:100520004108003CC1004208031C013FC201C20255
:100530004108F0004208F1000800FC300313831664
:1005400085007F30860087018B01031783129E018F
:100550009F010313870119308316990018152C2663
:100560003230A800A901AB01AC01A701AA016226A3
:100570007008003C0318202B2D30C0002D30BD002A
:10058000BE013D30C1009E243430C0002F30BD007C
:10059000BE013D30C1009E242D30C000DB2170081B
:1005A000BB007108BC003430C0005030BD004E307C
:1005B000BE00BF013D30C1002A2500307106031D79
:1005C000E32A00307006031DE92AFF30A700051456
:1005D000EB2AA70105103430C0005330BD004E3067
:1005E000BE00BF013D30C1002A2500307106031D49
:1005F000FB2A00307006031D012BFF30AA00851472
:10060000032BAA018510E830F4000330F5003B0805
:10061000F0003C08F10044247008A5007108A60011
:10062000E830F4000330F500E12470083B02A30039
:100630007108031C013F3C02A4003221AD01B4014A
:10064000B72A212B03138312FC01F71BFC0AFD01BF
:10065000FB01FA01F901F8017308720471047004D6
:100660000319B62B73087706A000A01BFD09F71F1E
:10067000442BF409F509F609F709F40A0319F50AF8
:100680000319F60A0319F70AF31F512BF009F109B0
:10069000F209F309F00A0319F10A0319F20A03191E
:1006A000F30A73087704A000A01B722B0420FC1B24
:1006B0008F2BFD1FB62BF009F109F209F309F00A9F
:1006C0000319F10A0319F20A0319F30AF809F909DF
:1006D000FA09FB09F80A0319F90A0319FA0A0319B6
:1006E000FB0AB62BF71F892BF31B832B7308FB0028
:1006F0007208FA007108F9007008F800F301F201BD
:10070000F101F001592BF301F201F101F001F00ABE
:100710000034F309F209F109F009FC17562BF80A25
:100720000319F90A0319FA0A0319FB0A7408780273
:10073000031D592B75087902031D592B76087A027F
:10074000031D592B77087B02031D592BFB01FA016E
:10075000F901F801F00A0319F10A0319F20A031961
:10076000F30AF31F592BA0012016FF34A0017C1CB3
:10077000BA2B5426003F0800E83003138312CF0041
:100780000330D000D101D2014D08F0004E08F10035
:10079000F201F301E830F4000330F5000030F60018
:1007A0000030F700AB257008CF007108D000720848
:1007B000D1007308D20000307302031DE92B003012
:1007C0007202031DE92B02307102031DE92BA330D5
:1007D00070020318EC2B432CA330F0000230F10020
:1007E000F201F3014F08F4005008F5005108F6003B
:1007F0005208F7007008F4027108031C710FF5022B
:100800007208031C720FF6027308031C730FF702C1
:100810007408CF007508D0007608D1007708D200A0
:100820000530F0007408CF007508D0007608D100BC
:100830007708D20070080319242CD20CD10CD00CEC
:10084000CF0CD213FF3F1B2CFF304F05F800500890
:10085000F0007008F8045108F0005208F100700828
:10086000F8045208F00070087804F4007408003AA4
:100870000319432C0130CF02031CD002031CD10208
:10088000031CD202242C080003138312FD01F9017A
:10089000F801710870040319003471087506FA0034
:1008A000FA1BFD09FB01F51F5A2CF409F509F40A9E
:1008B0000319F50AF11F612CF009F109F00A031977
:1008C000F10A71087504FA00FA1B762CE2257B18F0
:1008D000892CFD1F0034F009F109F00A0319F10A0F
:1008E000F809F909F80A0319F90A0034F51F852CEB
:1008F000F11B812C7108F9007008F800F101F0017A
:10090000692CF101F001F00A0034F109F009FB0A49
:10091000662CF80A0319F90A74087802031D692C79
:1009200075087902031D692CF901F801F00A031911
:10093000F10AF11F692C0000FF3408000313831231
:10094000C201C301C601410884000008C500622637
:100950007008003A0319D72C41267008C4004208D9
:100960004007F1007108840071088400700880005D
:1009700044084506031DC12C43084202C600C30AB1
:10098000C32CC301C6014308410784000008F100DD
:100990007108C5007108003A031DCF2CD82CC20A7B
:1009A0004208143C0318D72C1330C600D82CA72CAF
:1009B00046084007F0007008840070088400800139
:1009C000080003138312FB01FA01F9018030F800DB
:1009D000FD01F11FF12CF109F009F00A0319F10AE8
:1009E000FD0AF51FF92CF509F409F40A0319F50AB3
:1009F000FD0AF10CF00C031C062D7408F9077508AC
:100A00000318750FFA070318FB0A0310F01F0E2DC9
:100A10007408FA070318FB0A7508FB07FB0CFA0CAD
:100A2000F90CF80C031CF92C7D1C212DFB09FA098B
:100A3000F909F809F80A0319F90A0319FA0A031956
:100A4000FB0A7B08F3007A08F2007908F1007808C5
:100A5000F000080003138312C4014008840000085A
:100A6000C200C301410884000008F0000030C30048
:100A70007008C202031CC30300304306031D422D4D
:100A800000304206FF30031D0030F30044084007E9
:100A900084000008F2007208003AFF3003190030A9
:100AA000F0007308F00503196B2D440AF00070087C
:100AB000C4007008400784000008C200C301700829
:100AC000410784000008F0000030C3007008C20233
:100AD000031CC3033C2D4208F0004308F10008004A
:100AE00003138312FD01F31F822DF009F109F209AE
:100AF000F309F00A0319F10A0319F20A0319F30AB8
:100B00008130FD07F71F902DF409F509F609F70963
:100B1000F40A0319F50A0319F60A0319F70AFD0A7C
:100B2000AB257D1CAA2DF009F109F209F309F8099A
:100B3000F909FA09FB09F00A0319F10A0319F20A83
:100B40000319F30A0319F80A0319F90A0319FA0A2F
:100B50000319FB0A0800031383122230FC00F8017A
:100B6000F901FA01FB01FC030319E12D0310FB0C51
:100B7000FA0CF90CF80CF30CF20CF10CF00C031C51
:100B8000B32DFC030319D32D7408F8077508031857
:100B9000750FF90776080318760FFA077708031818
:100BA000770FFB07B72D7408F80775080318750F42
:100BB000F90776080318760FFA0777080318770FF6
:100BC000FB07080003138312710DF80DF90D74086B
:100BD000F8027508031C750FF902F00DF10D0F30C6
:100BE000FC00710DF80DF90D7408701CFD2DF80254
:100BF0007508031C750FF902022EF8077508031813
:100C0000750FF907F00DF10DFC0BF12D70180E2E7C
:100C10007408F80775080318750FF907080003131F
:100C20008312F801F9011030FC00710DF80DF90D77
:100C30007408F8027508031C750FF9020318272EB3
:100C40007408F80775080318750FF9070310F00DFD
:100C5000F10DFC0B152E0800031383169816903027
:100C60008312980083168616861783120C08F100EB
:100C70000030F11A0130F1007108013A0319352EE4
:100C80000800031383121A08CD001808F100003081
:100C9000F1180130F1007108013A031D512E1812AC
:100CA00018164D08F000080003138312FB09FA0917
:100CB000F909F809F80A0319F90A0319FA0A0319D4
:100CC000FB0A0800031383120C08F1000030F11A2C
:100CD0000130F1007108CD004D08F0000800FF3F21
:02400E00C430BC
:00000001FF
