:100000008E2AFF3FFF3FFF3F031383127408F8025D
:100010007508031C750FF9027608031C760FFA02A7
:100020007708031C770FFB02F30D0730FC00730DFC
:10003000F80DF90DFA0DFB0D7408731C2D28F8024C
:100040007508031C750FF9027608031C760FFA0277
:100050007708031C770FFB023A28F8077508031886
:10006000750FF90776080318760FFA077708031853
:10007000770FFB07F30DFC0B1728720DF80DF90D28
:10008000FA0DFB0D7408731C5328F8027508031C45
:10009000750FF9027608031C760FFA027708031C25
:1000A000770FFB026028F80775080318750FF9072A
:1000B00076080318760FFA0777080318770FFB07FF
:1000C000F20D0730FC00720DF80DF90DFA0DFB0D65
:1000D0007408721C7928F8027508031C750FF90260
:1000E0007608031C760FFA027708031C770FFB02D1
:1000F0008628F80775080318750FF907760803189E
:10010000760FFA0777080318770FFB07F20DFC0B41
:100110006328710DF80DF90DFA0DFB0D7408721CB2
:100120009F28F8027508031C750FF9027608031C56
:10013000760FFA027708031C770FFB02AC28F8074A
:1001400075080318750FF90776080318760FFA0774
:1001500077080318770FFB07F10D0730FC00710DCE
:10016000F80DF90DFA0DFB0D7408711CC528F80285
:100170007508031C750FF9027608031C760FFA0246
:100180007708031C770FFB02D228F80775080318BD
:10019000750FF90776080318760FFA077708031822
:1001A000770FFB07F10DFC0BAF28700DF80DF90D63
:1001B000FA0DFB0D7408711CEB28F8027508031C7E
:1001C000750FF9027608031C760FFA027708031CF4
:1001D000770FFB02F828F80775080318750FF90761
:1001E00076080318760FFA0777080318770FFB07CE
:1001F000F00D0730FC00700DF80DF90DFA0DFB0D38
:100200007408701C1129F8027508031C750FF90297
:100210007608031C760FFA027708031C770FFB029F
:100220001E29F80775080318750FF90776080318D3
:10023000760FFA0777080318770FFB07F00DFC0B12
:10024000FB28701831297408F80775080318750F12
:10025000F90776080318760FFA0777080318770F5F
:10026000FB07080003138312C001C1011030C40052
:100270002730C500C201C301C801C901CA01CB01B1
:10028000C601C70142083F0784000008F400740853
:10029000003A0319AE2942083F0784000008F40021
:1002A00074082D3A031D5B29FF30C600C701C20A3E
:1002B0000319C30A422942083F0784000008F400DA
:1002C0007408203A03199E2942083F078400000859
:1002D000F0003030F800F901FA01FB017008F40079
:1002E000F501F601F7017408F0007508F1007608D1
:1002F000F2007708F3007808F0027908031C790F00
:10030000F1027A08031C7A0FF2027B08031C7B0FB0
:10031000F3024408F4004508F500F601F701122540
:100320007008C80771080318710FC907720803180D
:10033000720FCA0773080318730FCB070A30F40053
:10034000F5014408F0004508F100B1257008C4002B
:100350007108C500C20A0319C30A422946084704A6
:100360000319B6290630C400C501B9290530C400F7
:10037000C50143084506031DBF2944084206031969
:10038000DB290A30F400F501F601F7014808F00016
:100390004908F1004A08F2004B08F300F421700804
:1003A000C8007108C9007208CA007308CB00C20AED
:1003B0000319C30AB9294808C0004908C100003020
:1003C0004706031DE529FF304606031DEF294008B7
:1003D000003CC0004108031C013FC101C1024008AC
:1003E000F0004108F100080003138312FC01F71B21
:1003F000FC0AFD01FB01FA01F901F801730872041E
:10040000710470040319882A73087706A000A01BE2
:10041000FD09F71F162AF409F509F609F709F40A88
:100420000319F50A0319F60A0319F70AF31F232A19
:10043000F009F109F209F309F00A0319F10A0319A5
:10044000F20A0319F30A73087704A000A01B442AD8
:100450000420FC1B612AFD1F882AF009F109F2091A
:10046000F309F00A0319F10A0319F20A0319F30A4E
:10047000F809F909FA09FB09F80A0319F90A031935
:10048000FA0A0319FB0A882AF71F5B2AF31B552A6D
:100490007308FB007208FA007108F9007008F80090
:1004A000F301F201F101F0012B2AF301F201F10154
:1004B000F001F00A0034F309F209F109F009FC1720
:1004C000282AF80A0319F90A0319FA0A0319FB0A78
:1004D00074087802031D2B2A75087902031D2B2A44
:1004E00076087A02031D2B2A77087B02031D2B2A2C
:1004F000FB01FA01F901F801F00A0319F10A0319E5
:10050000F20A0319F30AF31F2B2AA0012016FF3465
:10051000A0017C1C8C2AF625003F0800FE30031346
:10052000831685007F30860087018B0103178312B5
:100530009E019F0103138701193083169900181536
:10054000CE253230A800A901AA01AB01A7010426DB
:100550007008003C0318F82A2C30BF002D30BC0076
:10056000BD013C30C00040243330BF002F30BC0000
:10057000BD013C30C00040242C30BF003221700847
:10058000BA007108BB003330BF005030BC004E30A1
:10059000BD00BE013C30C000CC2400307106031DFC
:1005A000D32A00307006031DD92AFF30A700051496
:1005B000DB2AA7010510E830F4000330F5003A0803
:1005C000F0003B08F100E6237008A5007108A600C2
:1005D000E830F4000330F500832470083A02A300E9
:1005E0007108031C013F3B02A4008223AC01B3014C
:1005F000A72AF92AE83003138312CE000330CF0074
:10060000D001D1014C08F0004D08F100F201F301D6
:10061000E830F4000330F5000030F6000030F70059
:100620004D257008CE007108CF007208D000730805
:10063000D10000307302031D272B00307202031D0E
:10064000272B02307102031D272BA33070020318E1
:100650002A2B812BA330F0000230F100F201F301CC
:100660004E08F4004F08F5005008F6005108F70056
:100670007008F4027108031C710FF5027208031C64
:10068000720FF6027308031C730FF7027408CE0092
:100690007508CF007608D0007708D1000530F0004B
:1006A0007408CE007508CF007608D0007708D10016
:1006B00070080319622BD10CD00CCF0CCE0CD113C7
:1006C000FF3F592BFF304E05F8004F08F00070082F
:1006D000F8045008F0005108F1007008F8045108BF
:1006E000F00070087804F4007408003A0319812BB4
:1006F0000130CE02031CCF02031CD002031CD10226
:10070000622B0800013003138312A100A201803084
:100710002406F000803022067002031D912B210870
:100720002302031CE42B00302606031D992B013005
:100730002506031DD82B2708FF3A031DBC2B0130CB
:1007400087002808CC002908CD00FA220230870053
:100750002808CC002908CD00FA2204308700280898
:10076000CC002908CD00FA22083087002808CC00E8
:100770002908CD00FA22D82B083087002808CC00A1
:100780002908CD00FA22043087002808CC00290867
:10079000CD00FA22023087002808CC002908CD00BD
:1007A000FA22013087002808CC002908CD00FA225F
:1007B00022082406031DDE2B230821060319E42B3F
:1007C000A10A0319A20A872B8701080003138312C9
:1007D000FD01F901F8017108700403190034710872
:1007E0007506FA00FA1BFD09FB01F51FFC2BF40945
:1007F000F509F40A0319F50AF11F032CF009F109B0
:10080000F00A0319F10A71087504FA00FA1B182C92
:1008100084257B182B2CFD1F0034F009F109F00A08
:100820000319F10AF809F909F80A0319F90A003459
:10083000F51F272CF11B232C7108F9007008F80014
:10084000F101F0010B2CF101F001F00A0034F10983
:10085000F009FB0A082CF80A0319F90A740878024F
:10086000031D0B2C75087902031D0B2CF901F801EF
:10087000F00A0319F10AF11F0B2C0000FF340800E5
:1008800003138312C101C201C5014008840000089E
:10089000C40004267008003A0319792CE325700877
:1008A000C30041083F07F10071088400710884000B
:1008B0007008800043084406031D632C420841026F
:1008C000C500C20A652CC201C50142084007840068
:1008D0000008F1007108C4007108003A031D712C72
:1008E0007A2CC10A4108143C0318792C1330C50036
:1008F0007A2C492C45083F07F000700884007008E6
:1009000084008001080003138312FB01FA01F9013E
:100910008030F800FD01F11F932CF109F009F00A75
:100920000319F10AFD0AF51F9B2CF509F409F40AD5
:100930000319F50AFD0AF10CF00C031CA82C74082D
:10094000F90775080318750FFA070318FB0A031057
:10095000F01FB02C7408FA070318FB0A7508FB0790
:10096000FB0CFA0CF90CF80C031C9B2C7D1CC32C03
:10097000FB09FA09F909F809F80A0319F90A031930
:10098000FA0A0319FB0A7B08F3007A08F2007908D7
:10099000F1007808F000080003138312C3013F0838
:1009A00084000008C100C201400884000008F00073
:1009B0000030C2007008C102031CC20300304206AE
:1009C000031DE42C00304106FF30031D0030F3000E
:1009D00043083F0784000008F2007208003AFF3025
:1009E00003190030F0007308F00503190D2D430AB8
:1009F000F0007008C30070083F0784000008C100C1
:100A0000C2017008400784000008F0000030C200F6
:100A10007008C102031CC203DE2C4108F00042082A
:100A2000F100080003138312FD01F31F242DF009C8
:100A3000F109F209F309F00A0319F10A0319F20A9C
:100A40000319F30A8130FD07F71F322DF409F50968
:100A5000F609F709F40A0319F50A0319F60A031946
:100A6000F70AFD0A4D257D1C4C2DF009F109F2090C
:100A7000F309F809F909FA09FB09F00A0319F10A5F
:100A80000319F20A0319F30A0319F80A0319F90AF8
:100A90000319FA0A0319FB0A080003138312223010
:100AA000FC00F801F901FA01FB01FC030319832D95
:100AB0000310FB0CFA0CF90CF80CF30CF20CF10C13
:100AC000F00C031C552DFC030319752D7408F80751
:100AD00075080318750FF90776080318760FFA07DB
:100AE00077080318770FFB07592D7408F807750866
:100AF0000318750FF90776080318760FFA077708B9
:100B00000318770FFB07080003138312710DF80D0C
:100B1000F90D7408F8027508031C750FF902F00D41
:100B2000F10D0F30FC00710DF80DF90D7408701CFB
:100B30009F2DF8027508031C750FF902A42DF80704
:100B400075080318750FF907F00DF10DFC0B932DC7
:100B50007018B02D7408F80775080318750FF90799
:100B6000080003138312F801F9011030FC00710D25
:100B7000F80DF90D7408F8027508031C750FF902D9
:100B80000318C92D7408F80775080318750FF907BD
:100B90000310F00DF10DFC0BB72D080003138316A5
:100BA0009816903083129800831686168617831243
:100BB0000C08F1000030F11A0130F1007108013A1F
:100BC0000319D72D0800031383121A08CC00180844
:100BD000F1000030F1180130F1007108013A031DF5
:100BE000F32D181218164C08F00008000313831296
:100BF000FB09FA09F909F809F80A0319F90A0319AE
:100C0000FA0A0319FB0A0800031383120C08F10007
:100C10000030F11A0130F1007108CC004C08F000EE
:100C20000800FF3FFF3FFF3FFF3FFF3FFF3FFF3F0A
:02400E00C430BC
:00000001FF
