:100000002729FF3FFF3FFF3F013003138312050500
:10001000F1007108013A031D4A28220803192D280E
:10002000083087002008A6002108A7009F20043080
:1000300087002008A6002108A7009F200230870023
:100040002008A6002108A7009F2001308700200873
:10005000A6002108A7009F2049280130870020081A
:10006000A6002108A7009F20023087002008A600D4
:100070002108A7009F20043087002008A60021083F
:10008000A7009F20083087002008A6002108A700AD
:100090009F20042801300505F1007108013AFF3066
:1000A000031D0030F200003005190130F100710825
:1000B000013AFF30031D0030F0007208F00503190B
:1000C0009E28220803198128093087002008A600ED
:1000D0002108A7009F20043087002008A6002108DF
:1000E000A7009F20023087002008A6002108A70053
:1000F0009F20013087002008A6002108A7009F202C
:100100009D28013087002008A6002108A7009F2015
:10011000023087002008A6002108A7009F20043095
:1001200087002008A6002108A7009F20093087002B
:100130002008A6002108A7009F204A280800E830D0
:1001400003138312A8000330A900AA01AB012608FB
:10015000F0002708F100F201F301E830F400033069
:10016000F5000030F6000030F70099217008A80073
:100170007108A9007208AA007308AB00003073026E
:10018000031DCC2800307202031DCC2802307102FE
:10019000031DCC28A33070020318CF282629A330D2
:1001A000F0000230F100F201F3012808F400290800
:1001B000F5002A08F6002B08F7007008F402710811
:1001C000031C710FF5027208031C720FF60273080C
:1001D000031C730FF7027408A8007508A9007608BD
:1001E000AA007708AB000530F0007408A800750875
:1001F000A9007608AA007708AB0070080319072940
:10020000AB0CAA0CA90CA80CAB13FF3FFE28FF30C7
:100210002805F8002908F0007008F8042A08F00002
:100220002B08F1007008F8042B08F000700878041F
:10023000F4007408003A031926290130A802031CAF
:10024000A902031CAA02031CAB0207290800FF3005
:10025000031383168500FF30860087018B01031787
:1002600083129E019F0103138501870119308316B4
:1002700099001815D0213230A000A1010030851856
:100280000130F1007108013A031D4929FF30A20035
:100290000420003085180130F1007108003A031D78
:1002A0005329A2010420003005190130F100710822
:1002B000013AFF30031D0030F20000308518013094
:1002C000F1007108013AFF30031D0030F0007208A0
:1002D000F00503196E29FF30A20004200030051933
:1002E0000130F1007108013AFF30031D0030F200C7
:1002F000003085180130F1007108003AFF30031D0D
:100300000030F0007208F00503198829A2010420CA
:100310000D30FB00FF30FA00FB0B8F299229FA0BFE
:100320008F298C29F330FA00FA0B942900003E291A
:100330009829031383122230FC00F801F901FA0115
:10034000FB01FC030319CF290310FB0CFA0CF90C79
:10035000F80CF30CF20CF10CF00C031CA129FC03BB
:100360000319C1297408F80775080318750FF907F0
:1003700076080318760FFA0777080318770FFB073C
:10038000A5297408F80775080318750FF90776088A
:100390000318760FFA0777080318770FFB07080092
:1003A00003138316981690308312980083168616CE
:1003B000861783120C08F1000030F11A0130F100A9
:1003C0007108013A0319D9290800FF3FFF3FFF3F99
:02400E00C430BC
:00000001FF
