:10000000D728FF3FFF3FFF3FE83003138312AB00C9
:100010000330AC00AD01AE012908F0002A08F10060
:10002000F201F301E830F4000330F5000030F6008F
:100030000030F70008217008AB007108AC007208AE
:10004000AD007308AE0000307302031D312800308C
:100050007202031D312802307102031D3128A330C2
:100060007002031834288B28A330F0000230F1000E
:10007000F201F3012B08F4002C08F5002D08F6001E
:100080002E08F7007008F4027108031C710FF502C6
:100090007208031C720FF6027308031C730FF70239
:1000A0007408AB007508AC007608AD007708AE00A8
:1000B0000530F0007408AB007508AC007608AD00A0
:1000C0007708AE00700803196C28AE0CAD0CAC0CB0
:1000D000AB0CAE13FF3F6328FF302B05F8002C0854
:1000E000F0007008F8042D08F0002E08F1007008E8
:1000F000F8042E08F00070087804F4007408003A40
:1001000003198B280130AB02031CAC02031CAD02A7
:10011000031CAE026C28080001300313831205058E
:10012000F1007108013A031DD6282508003A031D85
:10013000B528013087002008A9002108AA00042062
:10014000023087002008A9002108AA0004200430FA
:1001500087002008A9002108AA0004200830870091
:100160002008A9002108AA0004202508FF3A031D41
:10017000D528083087002008A9002108AA000420FB
:10018000043087002008A9002108AA0004200230BA
:1001900087002008A9002108AA0004200130870058
:1001A0002008A9002108AA0004208C280800FF309C
:1001B000031383168500FF30860087018B01031728
:1001C00083129E019F010313850187011930831655
:1001D000990018153F213230A000A101A201A3010E
:1001E000A401003085180130F1007108013A031DA7
:1001F000FC28FF30A5008C20003085180130F1006C
:100200007108003A031D0629A5018C20F128072951
:10021000031383122230FC00F801F901FA01FB01FB
:10022000FC0303193E290310FB0CFA0CF90CF80C23
:10023000F30CF20CF10CF00C031C1029FC03031955
:1002400030297408F80775080318750FF907760840
:100250000318760FFA0777080318770FFB0714299E
:100260007408F80775080318750FF907760803185E
:10027000760FFA0777080318770FFB0708000313B8
:100280008316981690308312980083168616861768
:1002900083120C08F1000030F11A0130F1007108EE
:1002A000013A031948290800FF3FFF3FFF3FFF3F86
:02400E00C430BC
:00000001FF
