:100000000C2BFF3FFF3FFF3F031383127408F802DE
:100010007508031C750FF9027608031C760FFA02A7
:100020007708031C770FFB02F30D0730FC00730DFC
:10003000F80DF90DFA0DFB0D7408731C2D28F8024C
:100040007508031C750FF9027608031C760FFA0277
:100050007708031C770FFB023A28F8077508031886
:10006000750FF90776080318760FFA077708031853
:10007000770FFB07F30DFC0B1728720DF80DF90D28
:10008000FA0DFB0D7408731C5328F8027508031C45
:10009000750FF9027608031C760FFA027708031C25
:1000A000770FFB026028F80775080318750FF9072A
:1000B00076080318760FFA0777080318770FFB07FF
:1000C000F20D0730FC00720DF80DF90DFA0DFB0D65
:1000D0007408721C7928F8027508031C750FF90260
:1000E0007608031C760FFA027708031C770FFB02D1
:1000F0008628F80775080318750FF907760803189E
:10010000760FFA0777080318770FFB07F20DFC0B41
:100110006328710DF80DF90DFA0DFB0D7408721CB2
:100120009F28F8027508031C750FF9027608031C56
:10013000760FFA027708031C770FFB02AC28F8074A
:1001400075080318750FF90776080318760FFA0774
:1001500077080318770FFB07F10D0730FC00710DCE
:10016000F80DF90DFA0DFB0D7408711CC528F80285
:100170007508031C750FF9027608031C760FFA0246
:100180007708031C770FFB02D228F80775080318BD
:10019000750FF90776080318760FFA077708031822
:1001A000770FFB07F10DFC0BAF28700DF80DF90D63
:1001B000FA0DFB0D7408711CEB28F8027508031C7E
:1001C000750FF9027608031C760FFA027708031CF4
:1001D000770FFB02F828F80775080318750FF90761
:1001E00076080318760FFA0777080318770FFB07CE
:1001F000F00D0730FC00700DF80DF90DFA0DFB0D38
:100200007408701C1129F8027508031C750FF90297
:100210007608031C760FFA027708031C770FFB029F
:100220001E29F80775080318750FF90776080318D3
:10023000760FFA0777080318770FFB07F00DFC0B12
:10024000FB28701831297408F80775080318750F12
:10025000F90776080318760FFA0777080318770F5F
:10026000FB07080003138312B101B2011030B5007F
:100270002730B600B301B401B901BA01BB01BC011A
:10028000B701B8013308300784000008F40074088F
:10029000003A0319AE293308300784000008F4003F
:1002A00074082D3A031D5B29FF30B700B801B30A6B
:1002B0000319B40A42293308300784000008F40007
:1002C0007408203A03199E29330830078400000877
:1002D000F0003030F800F901FA01FB017008F40079
:1002E000F501F601F7017408F0007508F1007608D1
:1002F000F2007708F3007808F0027908031C790F00
:10030000F1027A08031C7A0FF2027B08031C7B0FB0
:10031000F3023508F4003608F500F601F701D122A2
:100320007008B90771080318710FBA07720803182B
:10033000720FBB0773080318730FBC070A30F40071
:10034000F5013508F0003608F10072237008B50099
:100350007108B600B30A0319B40A422937083804F1
:100360000319B6290630B500B601B9290530B50024
:10037000B60134083606031DBF29350833060319B4
:10038000DB290A30F400F501F601F7013908F00025
:100390003A08F1003B08F2003C08F300F421700831
:1003A000B9007108BA007208BB007308BC00B30A38
:1003B0000319B40AB9293908B1003A08B20000306B
:1003C0003806031DE529FF303706031DEF293108E4
:1003D000003CB1003208031C013FB201B2023108F7
:1003E000F0003208F100080003138312FC01F71B30
:1003F000FC0AFD01FB01FA01F901F801730872041E
:10040000710470040319882A73087706A000A01BE2
:10041000FD09F71F162AF409F509F609F709F40A88
:100420000319F50A0319F60A0319F70AF31F232A19
:10043000F009F109F209F309F00A0319F10A0319A5
:10044000F20A0319F30A73087704A000A01B442AD8
:100450000420FC1B612AFD1F882AF009F109F2091A
:10046000F309F00A0319F10A0319F20A0319F30A4E
:10047000F809F909FA09FB09F80A0319F90A031935
:10048000FA0A0319FB0A882AF71F5B2AF31B552A6D
:100490007308FB007208FA007108F9007008F80090
:1004A000F301F201F101F0012B2AF301F201F10154
:1004B000F001F00A0034F309F209F109F009FC1720
:1004C000282AF80A0319F90A0319FA0A0319FB0A78
:1004D00074087802031D2B2A75087902031D2B2A44
:1004E00076087A02031D2B2A77087B02031D2B2A2C
:1004F000FB01FA01F901F801F00A0319F10A0319E5
:10050000F20A0319F30AF31F2B2AA0012016FF3465
:10051000A0017C1C8C2AB723003F08000313831220
:10052000B201B301B601310884000008B500C5234B
:100530007008003A0319C72AA4237008B4003208CF
:100540003007F10071088400710884007008800091
:1005500034083506031DB12A33083202B600B30A47
:10056000B32AB301B6013308310784000008F10053
:100570007108B5007108003A031DBF2AC82AB20AE3
:100580003208143C0318C72A1330B600C82A972A29
:1005900036083007F000700884007008840080017D
:1005A000080003138312FD01F31FE32AF009F10988
:1005B000F209F309F00A0319F10A0319F20A0319FF
:1005C000F30A8130FD07F71FF12AF409F509F6094E
:1005D000F709F40A0319F50A0319F60A0319F70AC9
:1005E000FD0A3B237D1C0B2BF009F109F209F309ED
:1005F000F809F909FA09FB09F00A0319F10A0319C4
:10060000F20A0319F30A0319F80A0319F90A03197C
:10061000FA0A0319FB0A0800FC300313831685004D
:100620007F30860087018B01031783129E019F0193
:10063000031387013230A100A201A301A4011930E4
:100640008316990018158F23C5237008003C0318E2
:10065000392B2530B0002F30AE00AF012E30B10065
:100660008E222530B00032217008AC007108AD0038
:10067000A501242B3A2B031383122230FC00F8012E
:10068000F901FA01FB01FC030319712B0310FB0CA8
:10069000FA0CF90CF80CF30CF20CF10CF00C031C36
:1006A000432BFC030319632B7408F8077508031820
:1006B000750FF90776080318760FFA0777080318FD
:1006C000770FFB07472B7408F80775080318750F99
:1006D000F90776080318760FFA0777080318770FDB
:1006E000FB07080003138312F801F9011030FC0026
:1006F000710DF80DF90D7408F8027508031C750FDB
:10070000F90203188A2B7408F80775080318750F87
:10071000F9070310F00DF10DFC0B782B0800031303
:1007200083169816903083129800831686168617C3
:1007300083120C08F1000030F11A0130F100710849
:10074000013A0319982B0800031383121A08BD00FD
:100750001808F1000030F1180130F1007108013A79
:10076000031DB42B181218163D08F00008000313DF
:100770008312FB09FA09F909F809F80A0319F90AB9
:100780000319FA0A0319FB0A0800031383120C0861
:10079000F1000030F11A0130F1007108BD003D0890
:1007A000F0000800FF3FFF3FFF3FFF3FFF3FFF3FDD
:02400E00FFFFB2
:00000001FF
