:100000001A2BFF3FFF3FFF3F013003138312A10074
:10001000A20180302406F000803022067002031D09
:10002000132821082302031C282900302606031D5B
:100030001B2801302506031D5A282708FF3A031DF7
:100040003E28013087002808CE002908CF0056241A
:10005000023087002808CE002908CF00562404303B
:1000600087002808CE002908CF00562408308700D2
:100070002808CE002908CF0056245A2808308700C7
:100080002808CE002908CF0056240430870028080D
:10009000CE002908CF005624023087002808CE0061
:1000A0002908CF005624013087002808CE002908EF
:1000B000CF00562400302606031D60280230250696
:1000C000031D9F282A08FF3A031D8328103087004C
:1000D0002808CE002908CF005624203087002808A1
:1000E000CE002908CF005624403087002808CE00D3
:1000F0002908CF005624803087002808CE00290820
:10010000CF0056249F28803087002808CE00290879
:10011000CF005624403087002808CE002908CF00A1
:100120005624203087002808CE002908CF00562406
:10013000103087002808CE002908CF005624003050
:100140002606031DA52803302506031D1C292B08A0
:10015000FF3A031DE428013087002808CE00290853
:10016000CF005624103087002808CE002908CF0081
:100170005624023087002808CE002908CF005624D4
:10018000203087002808CE002908CF0056240430EC
:1001900087002808CE002908CF0056244030870069
:1001A0002808CE002908CF005624083087002808E8
:1001B000CE002908CF005624803087002808CE00C2
:1001C0002908CF0056241C29803087002808CE003B
:1001D0002908CF005624083087002808CE002908B7
:1001E000CF005624403087002808CE002908CF00D1
:1001F0005624043087002808CE002908CF00562452
:10020000203087002808CE002908CF00562402306D
:1002100087002808CE002908CF0056241030870018
:100220002808CE002908CF0056240130870028086E
:10023000CE002908CF00562422082406031D2229B7
:100240002308210603192829A10A0319A20A09284B
:1002500087010800031383127408F8027508031C51
:10026000750FF9027608031C760FFA027708031C53
:10027000770FFB02F30D0730FC00730DF80DF90D3D
:10028000FA0DFB0D7408731C5329F8027508031C42
:10029000750FF9027608031C760FFA027708031C23
:1002A000770FFB026029F80775080318750FF90727
:1002B00076080318760FFA0777080318770FFB07FD
:1002C000F30DFC0B3D29720DF80DF90DFA0DFB0D28
:1002D0007408731C7929F8027508031C750FF9025C
:1002E0007608031C760FFA027708031C770FFB02CF
:1002F0008629F80775080318750FF907760803189B
:10030000760FFA0777080318770FFB07F20D07300F
:10031000FC00720DF80DF90DFA0DFB0D7408721C3E
:100320009F29F8027508031C750FF9027608031C53
:10033000760FFA027708031C770FFB02AC29F80747
:1003400075080318750FF90776080318760FFA0772
:1003500077080318770FFB07F20DFC0B8929710D45
:10036000F80DF90DFA0DFB0D7408721CC529F80281
:100370007508031C750FF9027608031C760FFA0244
:100380007708031C770FFB02D229F80775080318BA
:10039000750FF90776080318760FFA077708031820
:1003A000770FFB07F10D0730FC00710DF80DF90D0B
:1003B000FA0DFB0D7408711CEB29F8027508031C7B
:1003C000750FF9027608031C760FFA027708031CF2
:1003D000770FFB02F829F80775080318750FF9075E
:1003E00076080318760FFA0777080318770FFB07CC
:1003F000F10DFC0BD529700DF80DF90DFA0DFB0D63
:100400007408711C112AF8027508031C750FF90293
:100410007608031C760FFA027708031C770FFB029D
:100420001E2AF80775080318750FF90776080318D0
:10043000760FFA0777080318770FFB07F00D0730E0
:10044000FC00700DF80DF90DFA0DFB0D7408701C11
:10045000372AF8027508031C750FF9027608031C89
:10046000760FFA027708031C770FFB02442AF8077D
:1004700075080318750FF90776080318760FFA0741
:1004800077080318770FFB07F00DFC0B212A701873
:10049000572A7408F80775080318750FF9077608C6
:1004A0000318760FFA0777080318770FFB07080081
:1004B00003138312C201C3011030C6002730C700E6
:1004C000C401C501CA01CB01CC01CD01C801C901DC
:1004D0004408410784000008F4007408003A031936
:1004E000D42A4408410784000008F40074082D3A17
:1004F000031D812AFF30C800C901C40A0319C50AB7
:10050000682A4408410784000008F4007408203A6F
:100510000319C42A4408410784000008F000303061
:10052000F800F901FA01FB017008F400F501F60189
:10053000F7017408F0007508F1007608F2007708FA
:10054000F3007808F0027908031C790FF1027A08A9
:10055000031C7A0FF2027B08031C7B0FF302460890
:10056000F4004708F500F601F7010A267008CA07EB
:1005700071080318710FCB0772080318720FCC07AC
:1005800073080318730FCD070A30F400F50146080D
:10059000F0004708F100A9267008C6007108C700DE
:1005A000C40A0319C50A682A480849040319DC2A41
:1005B0000630C600C701DF2A0530C600C70145085E
:1005C0004706031DE52A460844060319012B0A3095
:1005D000F400F501F601F7014A08F0004B08F100BC
:1005E0004C08F2004D08F300BC237008CA007108E3
:1005F000CB007208CC007308CD00C40A0319C50AE9
:10060000DF2A4A08C2004B08C30000304906031D18
:100610000B2BFF304806031D152B4208003CC2007F
:100620004308031C013FC301C3024208F000430812
:10063000F1000800F8300313831685007F30860030
:1006400087018B01031783129E019F01031387010A
:100650001930831699001815C6263230A800A90152
:10066000AC01AD01A701AA01AB01FC267008003C5A
:100670000318BA2B2E30C1002D30BE00BF013E3012
:10068000C20038253530C1002F30BE00BF013E30DA
:10069000C20038252E30C10058227008BC007108F5
:1006A000BD003530C1005030BE004E30BF00C0012B
:1006B0003E30C200C42500307106031D612B00309E
:1006C0007006031D672BFF30A7000514692BA701D7
:1006D00005103530C1005330BE004E30BF00C001A0
:1006E0003E30C200C42500307106031D792B003056
:1006F0007006031D7F2BFF30AA008514812BAA01F1
:1007000085103530C1004130BE004E30BF00C00101
:100710003E30C200C42500307106031D912B00300D
:100720007006031D992BFF30AB00051485140515C9
:100730009D2BAB01851005110511E830F400033045
:10074000F5003C08F0003D08F100DE247008A5002B
:100750007108A600E830F4000330F5007B2570082E
:100760003C02A3007108031C013F3D02A4000420C9
:10077000AE01B501352BBB2B03138312FC01F71B14
:10078000FC0AFD01FB01FA01F901F801730872048A
:10079000710470040319502C73087706A000A01B85
:1007A000FD09F71FDE2BF409F509F609F709F40A2C
:1007B0000319F50A0319F60A0319F70AF31FEB2BBD
:1007C000F009F109F209F309F00A0319F10A031912
:1007D000F20A0319F30A73087704A000A01B0C2C7B
:1007E0002A21FC1B292CFD1F502CF009F109F209CC
:1007F000F309F00A0319F10A0319F20A0319F30ABB
:10080000F809F909FA09FB09F80A0319F90A0319A1
:10081000FA0A0319FB0A502CF71F232CF31B1D2C7B
:100820007308FB007208FA007108F9007008F800FC
:10083000F301F201F101F001F32BF301F201F101F7
:10084000F001F00A0034F309F209F109F009FC178C
:10085000F02BF80A0319F90A0319FA0A0319FB0A1B
:1008600074087802031DF32B75087902031DF32B1E
:1008700076087A02031DF32B77087B02031DF32B06
:10088000FB01FA01F901F801F00A0319F10A031951
:10089000F20A0319F30AF31FF32BA0012016FF3409
:1008A000A0017C1C542CEE26003F0800E830031306
:1008B0008312D0000330D100D201D3014E08F000E2
:1008C0004F08F100F201F301E830F4000330F500C5
:1008D0000030F6000030F70045267008D00071089F
:1008E000D1007208D2007308D30000307302031DD8
:1008F000832C00307202031D832C02307102031D11
:10090000832CA33070020318862CDD2CA330F0005A
:100910000230F100F201F3015008F4005108F50033
:100920005208F6005308F7007008F4027108031C1F
:10093000710FF5027208031C720FF6027308031C94
:10094000730FF7027408D0007508D1007608D20042
:100950007708D3000530F0007408D0007508D10086
:100960007608D2007708D30070080319BE2CD30C88
:10097000D20CD10CD00CD313FF3FB52CFF30500557
:10098000F8005108F0007008F8045208F00053080D
:10099000F1007008F8045308F00070087804F400BF
:1009A0007408003A0319DD2C0130D002031CD10277
:1009B000031CD202031CD302BE2C080003138312B3
:1009C000FD01F901F8017108700403190034710880
:1009D0007506FA00FA1BFD09FB01F51FF42CF4095A
:1009E000F509F40A0319F50AF11FFB2CF009F109C6
:1009F000F00A0319F10A71087504FA00FA1B102DA8
:100A00007C267B18232DFD1F0034F009F109F00A24
:100A10000319F10AF809F909F80A0319F90A003467
:100A2000F51F1F2DF11B1B2D7108F9007008F80030
:100A3000F101F001032DF101F001F00A0034F10998
:100A4000F009FB0A002DF80A0319F90A7408780264
:100A5000031D032D75087902031D032DF901F8010B
:100A6000F00A0319F10AF11F032D0000FF340800FA
:100A700003138312C301C401C701420884000008A4
:100A8000C600FC267008003A0319712DDB26700899
:100A9000C50043084107F100710884007108840013
:100AA0007008800045084606031D5B2D440843027C
:100AB000C700C40A5D2DC401C70144084207840071
:100AC0000008F1007108C6007108003A031D692D85
:100AD000722DC30A4308143C0318712D1330C7004C
:100AE000722D412D47084107F000700884007008FE
:100AF00084008001080003138312FB01FA01F9014D
:100B00008030F800FD01F11F8B2DF109F009F00A8A
:100B10000319F10AFD0AF51F932DF509F409F40AEA
:100B20000319F50AFD0AF10CF00C031CA02D740842
:100B3000F90775080318750FFA070318FB0A031065
:100B4000F01FA82D7408FA070318FB0A7508FB07A5
:100B5000FB0CFA0CF90CF80C031C932D7D1CBB2D1F
:100B6000FB09FA09F909F809F80A0319F90A03193E
:100B7000FA0A0319FB0A7B08F3007A08F2007908E5
:100B8000F1007808F000080003138312C501410842
:100B900084000008C300C401420884000008F0007B
:100BA0000030C4007008C302031CC40300304406B4
:100BB000031DDC2D00304306FF30031D0030F30021
:100BC0004508410784000008F2007208003AFF302F
:100BD00003190030F0007308F0050319052E450ACB
:100BE000F0007008C5007008410784000008C300C9
:100BF000C4017008420784000008F0000030C400FF
:100C00007008C302031CC403D62D4308F000440837
:100C1000F100080003138312FD01F31F1C2EF009DD
:100C2000F109F209F309F00A0319F10A0319F20AAA
:100C30000319F30A8130FD07F71F2A2EF409F5097D
:100C4000F609F709F40A0319F50A0319F60A031954
:100C5000F70AFD0A45267D1C442EF009F109F20928
:100C6000F309F809F909FA09FB09F00A0319F10A6D
:100C70000319F20A0319F30A0319F80A0319F90A06
:100C80000319FA0A0319FB0A08000313831222301E
:100C9000FC00F801F901FA01FB01FC0303197B2EAA
:100CA0000310FB0CFA0CF90CF80CF30CF20CF10C21
:100CB000F00C031C4D2EFC0303196D2E7408F8076D
:100CC00075080318750FF90776080318760FFA07E9
:100CD00077080318770FFB07512E7408F80775087B
:100CE0000318750FF90776080318760FFA077708C7
:100CF0000318770FFB07080003138312710DF80D1B
:100D0000F90D7408F8027508031C750FF902F00D4F
:100D1000F10D0F30FC00710DF80DF90D7408701C09
:100D2000972EF8027508031C750FF9029C2EF80720
:100D300075080318750FF907F00DF10DFC0B8B2EDC
:100D40007018A82E7408F80775080318750FF907AE
:100D5000080003138312F801F9011030FC00710D33
:100D6000F80DF90D7408F8027508031C750FF902E7
:100D70000318C12E7408F80775080318750FF907D2
:100D80000310F00DF10DFC0BAF2E080003138316BA
:100D90009816903083129800831686168617831251
:100DA0000C08F1000030F11A0130F1007108013A2D
:100DB0000319CF2E0800031383121A08CE00180857
:100DC000F1000030F1180130F1007108013A031D03
:100DD000EB2E181218164E08F000080003138312A9
:100DE000FB09FA09F909F809F80A0319F90A0319BC
:100DF000FA0A0319FB0A0800031383120C08F10016
:100E00000030F11A0130F1007108CE004E08F000F8
:100E10000800FF3FFF3FFF3FFF3FFF3FFF3FFF3F18
:02400E00C430BC
:00000001FF
