:10000000D328FF3FFF3FFF3FE83003138312AA00CE
:100010000330AB00AC01AD012808F0002908F10065
:10002000F201F301E830F4000330F5000030F6008F
:100030000030F70012217008AA007108AB007208A6
:10004000AC007308AD0000307302031D312800308E
:100050007202031D312802307102031D3128A330C2
:100060007002031834288B28A330F0000230F1000E
:10007000F201F3012A08F4002B08F5002C08F60021
:100080002D08F7007008F4027108031C710FF502C7
:100090007208031C720FF6027308031C730FF70239
:1000A0007408AA007508AB007608AC007708AD00AC
:1000B0000530F0007408AA007508AB007608AC00A3
:1000C0007708AD00700803196C28AD0CAC0CAB0CB4
:1000D000AA0CAD13FF3F6328FF302A05F8002B0858
:1000E000F0007008F8042C08F0002D08F1007008EA
:1000F000F8042D08F00070087804F4007408003A41
:1001000003198B280130AA02031CAB02031CAC02AA
:10011000031CAD026C28080001300313831205058F
:10012000F1007108013A031DD22824080319B528EB
:10013000083087002008A8002108A9000420043006
:1001400087002008A8002108A900042002308700A9
:100150002008A8002108A9000420013087002008F9
:10016000A8002108A9000420D12801308700200818
:10017000A8002108A9000420023087002008A80058
:100180002108A9000420043087002008A8002108C5
:10019000A9000420083087002008A8002108A90031
:1001A00004208C280800FF30031383168500FF30DD
:1001B000860087018B01031783129E019F010313A1
:1001C00085018701193083169900181549213230AD
:1001D000A000A101A201A301003085180130F100A7
:1001E0007108013A031DF728FF30A4008C2000306D
:1001F00085180130F1007108003A031D0129A4019E
:100200008C200D30FB00FF30FA00FB0B08290B2976
:10021000FA0B08290529F330FA00FA0B0D29000022
:10022000EC281129031383122230FC00F801F90194
:10023000FA01FB01FC03031948290310FB0CFA0C1B
:10024000F90CF80CF30CF20CF10CF00C031C1A294D
:10025000FC0303193A297408F80775080318750F89
:10026000F90776080318760FFA0777080318770F4F
:10027000FB071E297408F80775080318750FF9079E
:1002800076080318760FFA0777080318770FFB072D
:100290000800031383169816903083129800831673
:1002A0008616861783120C08F1000030F11A01300F
:1002B000F1007108013A031952290800FF3FFF3F7E
:02400E00C430BC
:00000001FF
