:10000000722BFF3FFF3FFF3F031383127408F80278
:100010007508031C750FF9027608031C760FFA02A7
:100020007708031C770FFB02F30D0730FC00730DFC
:10003000F80DF90DFA0DFB0D7408731C2D28F8024C
:100040007508031C750FF9027608031C760FFA0277
:100050007708031C770FFB023A28F8077508031886
:10006000750FF90776080318760FFA077708031853
:10007000770FFB07F30DFC0B1728720DF80DF90D28
:10008000FA0DFB0D7408731C5328F8027508031C45
:10009000750FF9027608031C760FFA027708031C25
:1000A000770FFB026028F80775080318750FF9072A
:1000B00076080318760FFA0777080318770FFB07FF
:1000C000F20D0730FC00720DF80DF90DFA0DFB0D65
:1000D0007408721C7928F8027508031C750FF90260
:1000E0007608031C760FFA027708031C770FFB02D1
:1000F0008628F80775080318750FF907760803189E
:10010000760FFA0777080318770FFB07F20DFC0B41
:100110006328710DF80DF90DFA0DFB0D7408721CB2
:100120009F28F8027508031C750FF9027608031C56
:10013000760FFA027708031C770FFB02AC28F8074A
:1001400075080318750FF90776080318760FFA0774
:1001500077080318770FFB07F10D0730FC00710DCE
:10016000F80DF90DFA0DFB0D7408711CC528F80285
:100170007508031C750FF9027608031C760FFA0246
:100180007708031C770FFB02D228F80775080318BD
:10019000750FF90776080318760FFA077708031822
:1001A000770FFB07F10DFC0BAF28700DF80DF90D63
:1001B000FA0DFB0D7408711CEB28F8027508031C7E
:1001C000750FF9027608031C760FFA027708031CF4
:1001D000770FFB02F828F80775080318750FF90761
:1001E00076080318760FFA0777080318770FFB07CE
:1001F000F00D0730FC00700DF80DF90DFA0DFB0D38
:100200007408701C1129F8027508031C750FF90297
:100210007608031C760FFA027708031C770FFB029F
:100220001E29F80775080318750FF90776080318D3
:10023000760FFA0777080318770FFB07F00DFC0B12
:10024000FB28701831297408F80775080318750F12
:10025000F90776080318760FFA0777080318770F5F
:10026000FB07080003138312BB01BC011030BF0061
:100270002730C000BD01BE01C301C401C501C601D4
:10028000C101C2013D083A0784000008F400740867
:10029000003A0319AE293D083A0784000008F4002B
:1002A00074082D3A031D5B29FF30C100C201BD0A4D
:1002B0000319BE0A42293D083A0784000008F400E9
:1002C0007408203A03199E293D083A078400000863
:1002D000F0003030F800F901FA01FB017008F40079
:1002E000F501F601F7017408F0007508F1007608D1
:1002F000F2007708F3007808F0027908031C790F00
:10030000F1027A08031C7A0FF2027B08031C7B0FB0
:10031000F3023F08F4004008F500F601F70150240D
:100320007008C30771080318710FC4077208031817
:10033000720FC50773080318730FC6070A30F4005D
:10034000F5013F08F0004008F100C2247008BF002A
:100350007108C000BD0A0319BE0A422941084204BF
:100360000319B6290630BF00C001B9290530BF0006
:10037000C0013E084006031DBF293F083D06031982
:10038000DB290A30F400F501F601F7014308F0001B
:100390004408F1004508F2004608F300F421700813
:1003A000C3007108C4007208C5007308C600BD0A06
:1003B0000319BE0AB9294308BB004408BC00003039
:1003C0004206031DE529FF304106031DEF293B08C6
:1003D000003CBB003C08031C013FBC01BC023B08C5
:1003E000F0003C08F100080003138312FC01F71B26
:1003F000FC0AFD01FB01FA01F901F801730872041E
:10040000710470040319882A73087706A000A01BE2
:10041000FD09F71F162AF409F509F609F709F40A88
:100420000319F50A0319F60A0319F70AF31F232A19
:10043000F009F109F209F309F00A0319F10A0319A5
:10044000F20A0319F30A73087704A000A01B442AD8
:100450000420FC1B612AFD1F882AF009F109F2091A
:10046000F309F00A0319F10A0319F20A0319F30A4E
:10047000F809F909FA09FB09F80A0319F90A031935
:10048000FA0A0319FB0A882AF71F5B2AF31B552A6D
:100490007308FB007208FA007108F9007008F80090
:1004A000F301F201F101F0012B2AF301F201F10154
:1004B000F001F00A0034F309F209F109F009FC1720
:1004C000282AF80A0319F90A0319FA0A0319FB0A78
:1004D00074087802031D2B2A75087902031D2B2A44
:1004E00076087A02031D2B2A77087B02031D2B2A2C
:1004F000FB01FA01F901F801F00A0319F10A0319E5
:10050000F20A0319F30AF31F2B2AA0012016FF3465
:10051000A0017C1C8C2A0725003F0800E83003134B
:100520008312C9000330CA00CB01CC014708F00098
:100530004808F100F201F301E830F4000330F5005F
:100540000030F6000030F7008B247008C9007108F5
:10055000CA007208CB007308CC0000307302031D80
:10056000BB2A00307202031DBB2A02307102031D38
:10057000BB2AA33070020318BE2A152BA330F0004B
:100580000230F100F201F3014908F4004A08F500D5
:100590004B08F6004C08F7007008F4027108031CC1
:1005A000710FF5027208031C720FF6027308031C28
:1005B000730FF7027408C9007508CA007608CB00EB
:1005C0007708CC000530F0007408C9007508CA002F
:1005D0007608CB007708CC0070080319F62ACC0CFB
:1005E000CB0CCA0CC90CCC13FF3FED2AFF304905D8
:1005F000F8004A08F0007008F8044B08F0004C08B6
:10060000F1007008F8044C08F00070087804F40059
:100610007408003A0319152B0130C902031CCA02E1
:10062000031CCB02031CCC02F62A08000130031382
:100630008312A100A20180303B06F0008030220628
:100640007002031D252B21083A02031C702B23087E
:10065000FF3A031D482B013087002408C7002508F6
:10066000C8008E22023087002408C7002508C80071
:100670008E22043087002408C7002508C8008E2277
:10068000083087002408C7002508C8008E22642B84
:10069000083087002408C7002508C8008E220430CF
:1006A00087002408C7002508C8008E220230870072
:1006B0002408C7002508C8008E22013087002408BE
:1006C000C7002508C8008E2222083B06031D6A2B9E
:1006D0003A0821060319702BA10A0319A20A1B2B41
:1006E00087010800FE300313831685007F308600E3
:1006F00087018B01031783129E019F01031387015A
:100700001930831699001815DF243230A400A50192
:10071000A601A701A30115257008003C0318C22BF0
:100720002830BA002D30B800B9013830BB00C723DB
:100730002F30BA002F30B800B9013830BB00C723C2
:100740002830BA0032217008B6007108B7002F3087
:10075000BA004E30B800B9013830BB000A2400306E
:100760007106031DB52B00307006031DBB2BFF3037
:10077000A3000514BD2BA30105103608BA003708E5
:10078000BB001623A8013030A3008B2BC62B03130C
:100790008312BC01BD01C0013B0884000008BF00FA
:1007A00015257008003A0319002CF4247008BE00C7
:1007B0003C083A07F1007108840071088400700851
:1007C00080003E083F06031DEA2B3D083C02C000A6
:1007D000BD0AEC2BBD01C0013D083B0784000008A9
:1007E000F1007108BF007108003A031DF82B012CBD
:1007F000BC0A3C08143C0318002C1330C000012C28
:10080000D02B40083A07F00070088400700884007C
:100810008001080003138312BE013A088400000817
:10082000BC00BD013B0884000008F0000030BD00A2
:100830007008BC02031CBD0300303D06031D222CC2
:1008400000303C06FF30031D0030F3003E083A073D
:1008500084000008F2007208003AFF3003190030EB
:10086000F0007308F00503194B2C3E0AF0007008E5
:10087000BE0070083A0784000008BC00BD01700883
:100880003B0784000008F0000030BD007008BC0287
:10089000031CBD031C2C3C08F0003D08F1000800BF
:1008A00003138312FD01F31F622CF009F109F20911
:1008B000F309F00A0319F10A0319F20A0319F30AFA
:1008C0008130FD07F71F702CF409F509F609F709C7
:1008D000F40A0319F50A0319F60A0319F70AFD0ABF
:1008E0008B247D1C8A2CF009F109F209F309F8091F
:1008F000F909FA09FB09F00A0319F10A0319F20AC6
:100900000319F30A0319F80A0319F90A0319FA0A71
:100910000319FB0A0800031383122230FC00F801BC
:10092000F901FA01FB01FC030319C12C0310FB0CB4
:10093000FA0CF90CF80CF30CF20CF10CF00C031C93
:10094000932CFC030319B32C7408F80775080318DB
:10095000750FF90776080318760FFA07770803185A
:10096000770FFB07972C7408F80775080318750FA5
:10097000F90776080318760FFA0777080318770F38
:10098000FB07080003138312F801F9011030FC0083
:10099000710DF80DF90D7408F8027508031C750F38
:1009A000F9020318DA2C7408F80775080318750F94
:1009B000F9070310F00DF10DFC0BC82C0800031310
:1009C0008316981690308312980083168616861721
:1009D00083120C08F1000030F11A0130F1007108A7
:1009E000013A0319E82C0800031383121A08C70000
:1009F0001808F1000030F1180130F1007108013AD7
:100A0000031D042D181218164708F00008000313E0
:100A10008312FB09FA09F909F809F80A0319F90A16
:100A20000319FA0A0319FB0A0800031383120C08BE
:100A3000F1000030F11A0130F1007108C7004708D9
:100A4000F0000800FF3FFF3FFF3FFF3FFF3FFF3F3A
:02400E00C430BC
:00000001FF
