:100000001829FF3FFF3FFF3F01300313831205050F
:10001000F1007108013A031D8F28003005190130E5
:10002000F1007108013A031D5228220803193528EE
:10003000093087002008A6002108A700902004307E
:1000400087002008A6002108A70090200230870022
:100050002008A6002108A700902001308700200872
:10006000A6002108A7009020512801308700200811
:10007000A6002108A7009020023087002008A600D3
:100080002108A7009020043087002008A60021083E
:10009000A7009020093087002008A6002108A700AB
:1000A00090208E2822080319722808308700200823
:1000B000A6002108A7009020043087002008A60091
:1000C0002108A7009020023087002008A600210800
:1000D000A7009020013087002008A6002108A70073
:1000E00090208E28013087002008A6002108A70054
:1000F0009020023087002008A6002108A700902049
:10010000043087002008A6002108A70090200830AE
:1001100087002008A6002108A700902004280800D6
:10012000E83003138312A8000330A900AA01AB0131
:100130002608F0002708F100F201F301E830F4008E
:100140000330F5000030F6000030F7008A21700817
:10015000A8007108A9007208AA007308AB0000305B
:100160007302031DBD2800307202031DBD2802303A
:100170007102031DBD28A33070020318C02817297F
:10018000A330F0000230F100F201F3012808F4007E
:100190002908F5002A08F6002B08F7007008F40279
:1001A0007108031C710FF5027208031C720FF6022E
:1001B0007308031C730FF7027408A8007508A900E0
:1001C0007608AA007708AB000530F0007408A80094
:1001D0007508A9007608AA007708AB007008031913
:1001E000F828AB0CAA0CA90CA80CAB13FF3FEF2806
:1001F000FF302805F8002908F0007008F8042A08E4
:10020000F0002B08F1007008F8042B08F0007008CB
:100210007804F4007408003A031917290130A80281
:10022000031CA902031CAA02031CAB02F828080045
:10023000FF30031383168500FF30860087018B0192
:10024000031783129E019F01031385018701193053
:10025000831699001815C1213230A000A101003089
:1002600085180130F1007108013A031D3A29FF3069
:10027000A2000420003085180130F1007108003A16
:10028000031D4429A2010420003005190130F100AA
:100290007108013AFF30031D0030F200003085186C
:1002A0000130F1007108013AFF30031D0030F00009
:1002B0007208F00503195F29FF30A2000420003006
:1002C00005190130F1007108013AFF30031D0030BB
:1002D000F200003085180130F1007108003AFF305B
:1002E000031D0030F0007208F00503197929A201FE
:1002F00004200D30FB00FF30FA00FB0B802983291E
:10030000FA0B80297D29F330FA00FA0B85290000C9
:100310002F298929031383122230FC00F801F901E7
:10032000FA01FB01FC030319C0290310FB0CFA0CB2
:10033000F90CF80CF30CF20CF10CF00C031C9229E4
:10034000FC030319B2297408F80775080318750F20
:10035000F90776080318760FFA0777080318770F5E
:10036000FB0796297408F80775080318750FF90735
:1003700076080318760FFA0777080318770FFB073C
:100380000800031383169816903083129800831682
:100390008616861783120C08F1000030F11A01301E
:1003A000F1007108013A0319CA290800FF3FFF3F15
:02400E00C430BC
:00000001FF
